{
  "address": "0x275e3E03a7E4b41B846dB1658CeFa6433cbA7790",
  "abi": [
    {
      "inputs": [
        {
          "internalType": "address payable",
          "name": "devWallet",
          "type": "address"
        }
      ],
      "stateMutability": "nonpayable",
      "type": "constructor"
    },
    {
      "anonymous": false,
      "inputs": [
        {
          "indexed": true,
          "internalType": "address",
          "name": "owner",
          "type": "address"
        },
        {
          "indexed": true,
          "internalType": "address",
          "name": "approved",
          "type": "address"
        },
        {
          "indexed": true,
          "internalType": "uint256",
          "name": "tokenId",
          "type": "uint256"
        }
      ],
      "name": "Approval",
      "type": "event"
    },
    {
      "anonymous": false,
      "inputs": [
        {
          "indexed": true,
          "internalType": "address",
          "name": "owner",
          "type": "address"
        },
        {
          "indexed": true,
          "internalType": "address",
          "name": "operator",
          "type": "address"
        },
        {
          "indexed": false,
          "internalType": "bool",
          "name": "approved",
          "type": "bool"
        }
      ],
      "name": "ApprovalForAll",
      "type": "event"
    },
    {
      "anonymous": false,
      "inputs": [
        {
          "indexed": true,
          "internalType": "address",
          "name": "previousOwner",
          "type": "address"
        },
        {
          "indexed": true,
          "internalType": "address",
          "name": "newOwner",
          "type": "address"
        }
      ],
      "name": "OwnershipTransferred",
      "type": "event"
    },
    {
      "anonymous": false,
      "inputs": [
        {
          "indexed": true,
          "internalType": "address",
          "name": "from",
          "type": "address"
        },
        {
          "indexed": true,
          "internalType": "address",
          "name": "to",
          "type": "address"
        },
        {
          "indexed": true,
          "internalType": "uint256",
          "name": "tokenId",
          "type": "uint256"
        }
      ],
      "name": "Transfer",
      "type": "event"
    },
    {
      "inputs": [],
      "name": "MaxPlanks",
      "outputs": [
        {
          "internalType": "uint256",
          "name": "",
          "type": "uint256"
        }
      ],
      "stateMutability": "view",
      "type": "function"
    },
    {
      "inputs": [],
      "name": "SalesRemaining",
      "outputs": [
        {
          "internalType": "uint256",
          "name": "",
          "type": "uint256"
        }
      ],
      "stateMutability": "view",
      "type": "function"
    },
    {
      "inputs": [
        {
          "internalType": "address",
          "name": "promoterAddress",
          "type": "address"
        }
      ],
      "name": "addPromoter",
      "outputs": [],
      "stateMutability": "nonpayable",
      "type": "function"
    },
    {
      "inputs": [
        {
          "internalType": "address",
          "name": "to",
          "type": "address"
        },
        {
          "internalType": "uint256",
          "name": "tokenId",
          "type": "uint256"
        }
      ],
      "name": "approve",
      "outputs": [],
      "stateMutability": "nonpayable",
      "type": "function"
    },
    {
      "inputs": [
        {
          "internalType": "uint256",
          "name": "",
          "type": "uint256"
        }
      ],
      "name": "availablePlanks",
      "outputs": [
        {
          "internalType": "uint256",
          "name": "",
          "type": "uint256"
        }
      ],
      "stateMutability": "view",
      "type": "function"
    },
    {
      "inputs": [
        {
          "internalType": "address",
          "name": "owner",
          "type": "address"
        }
      ],
      "name": "balanceOf",
      "outputs": [
        {
          "internalType": "uint256",
          "name": "",
          "type": "uint256"
        }
      ],
      "stateMutability": "view",
      "type": "function"
    },
    {
      "inputs": [
        {
          "internalType": "uint256",
          "name": "quantity",
          "type": "uint256"
        }
      ],
      "name": "buyPlanks",
      "outputs": [],
      "stateMutability": "payable",
      "type": "function"
    },
    {
      "inputs": [],
      "name": "claimPromoter",
      "outputs": [],
      "stateMutability": "nonpayable",
      "type": "function"
    },
    {
      "inputs": [
        {
          "internalType": "uint256",
          "name": "tokenId",
          "type": "uint256"
        }
      ],
      "name": "getApproved",
      "outputs": [
        {
          "internalType": "address",
          "name": "",
          "type": "address"
        }
      ],
      "stateMutability": "view",
      "type": "function"
    },
    {
      "inputs": [
        {
          "internalType": "address",
          "name": "owner",
          "type": "address"
        },
        {
          "internalType": "address",
          "name": "operator",
          "type": "address"
        }
      ],
      "name": "isApprovedForAll",
      "outputs": [
        {
          "internalType": "bool",
          "name": "",
          "type": "bool"
        }
      ],
      "stateMutability": "view",
      "type": "function"
    },
    {
      "inputs": [
        {
          "internalType": "string",
          "name": "tokenURI",
          "type": "string"
        }
      ],
      "name": "mintPlank",
      "outputs": [
        {
          "internalType": "uint256",
          "name": "",
          "type": "uint256"
        }
      ],
      "stateMutability": "nonpayable",
      "type": "function"
    },
    {
      "inputs": [],
      "name": "name",
      "outputs": [
        {
          "internalType": "string",
          "name": "",
          "type": "string"
        }
      ],
      "stateMutability": "view",
      "type": "function"
    },
    {
      "inputs": [],
      "name": "owner",
      "outputs": [
        {
          "internalType": "address",
          "name": "",
          "type": "address"
        }
      ],
      "stateMutability": "view",
      "type": "function"
    },
    {
      "inputs": [
        {
          "internalType": "uint256",
          "name": "tokenId",
          "type": "uint256"
        }
      ],
      "name": "ownerOf",
      "outputs": [
        {
          "internalType": "address",
          "name": "",
          "type": "address"
        }
      ],
      "stateMutability": "view",
      "type": "function"
    },
    {
      "inputs": [],
      "name": "renounceOwnership",
      "outputs": [],
      "stateMutability": "nonpayable",
      "type": "function"
    },
    {
      "inputs": [
        {
          "internalType": "address",
          "name": "from",
          "type": "address"
        },
        {
          "internalType": "address",
          "name": "to",
          "type": "address"
        },
        {
          "internalType": "uint256",
          "name": "tokenId",
          "type": "uint256"
        }
      ],
      "name": "safeTransferFrom",
      "outputs": [],
      "stateMutability": "nonpayable",
      "type": "function"
    },
    {
      "inputs": [
        {
          "internalType": "address",
          "name": "from",
          "type": "address"
        },
        {
          "internalType": "address",
          "name": "to",
          "type": "address"
        },
        {
          "internalType": "uint256",
          "name": "tokenId",
          "type": "uint256"
        },
        {
          "internalType": "bytes",
          "name": "_data",
          "type": "bytes"
        }
      ],
      "name": "safeTransferFrom",
      "outputs": [],
      "stateMutability": "nonpayable",
      "type": "function"
    },
    {
      "inputs": [
        {
          "internalType": "address",
          "name": "operator",
          "type": "address"
        },
        {
          "internalType": "bool",
          "name": "approved",
          "type": "bool"
        }
      ],
      "name": "setApprovalForAll",
      "outputs": [],
      "stateMutability": "nonpayable",
      "type": "function"
    },
    {
      "inputs": [
        {
          "internalType": "bytes4",
          "name": "interfaceId",
          "type": "bytes4"
        }
      ],
      "name": "supportsInterface",
      "outputs": [
        {
          "internalType": "bool",
          "name": "",
          "type": "bool"
        }
      ],
      "stateMutability": "view",
      "type": "function"
    },
    {
      "inputs": [],
      "name": "symbol",
      "outputs": [
        {
          "internalType": "string",
          "name": "",
          "type": "string"
        }
      ],
      "stateMutability": "view",
      "type": "function"
    },
    {
      "inputs": [
        {
          "internalType": "uint256",
          "name": "tokenId",
          "type": "uint256"
        }
      ],
      "name": "tokenURI",
      "outputs": [
        {
          "internalType": "string",
          "name": "",
          "type": "string"
        }
      ],
      "stateMutability": "view",
      "type": "function"
    },
    {
      "inputs": [
        {
          "internalType": "address",
          "name": "from",
          "type": "address"
        },
        {
          "internalType": "address",
          "name": "to",
          "type": "address"
        },
        {
          "internalType": "uint256",
          "name": "tokenId",
          "type": "uint256"
        }
      ],
      "name": "transferFrom",
      "outputs": [],
      "stateMutability": "nonpayable",
      "type": "function"
    },
    {
      "inputs": [
        {
          "internalType": "address",
          "name": "newOwner",
          "type": "address"
        }
      ],
      "name": "transferOwnership",
      "outputs": [],
      "stateMutability": "nonpayable",
      "type": "function"
    }
  ],
  "transactionHash": "0x258d047641a9257d11455d35c2e9c2ed2d2f14bbe1a4494fd074c1db86a8d72d",
  "args": [
    "0x6C641CE6A7216F12d28692f9d8b2BDcdE812eD2b"
  ],
  "solcInputHash": "3410eac8a4e5939445ead8b271b8ca6c",
  "bytecode": "0x608060405268015af1d78b58c40000600a553480156200001e57600080fd5b5060405162002424380380620024248339810160408190526200004191620001f4565b604080518082018252600e81526d506f6c79506c616e6b2047454e3160901b60208083019182528351808501909452600b84526a504f4c59504c414e4b473160a81b9084015281519192916200009a916000916200014e565b508051620000b09060019060208401906200014e565b505050620000cd620000c7620000f860201b60201c565b620000fc565b6001600855600b80546001600160a01b0319166001600160a01b039290921691909117905562000261565b3390565b600780546001600160a01b038381166001600160a01b0319831681179093556040519116919082907f8be0079c531659141344cd1fd0a4f28419497f9722a3daafe3b4186f6b6457e090600090a35050565b8280546200015c9062000224565b90600052602060002090601f016020900481019282620001805760008555620001cb565b82601f106200019b57805160ff1916838001178555620001cb565b82800160010185558215620001cb579182015b82811115620001cb578251825591602001919060010190620001ae565b50620001d9929150620001dd565b5090565b5b80821115620001d95760008155600101620001de565b60006020828403121562000206578081fd5b81516001600160a01b03811681146200021d578182fd5b9392505050565b6002810460018216806200023957607f821691505b602082108114156200025b57634e487b7160e01b600052602260045260246000fd5b50919050565b6121b380620002716000396000f3fe6080604052600436106101705760003560e01c80638da5cb5b116100d6578063e522d6ed1161007f578063f2fde38b11610059578063f2fde38b146103e5578063f911cc2214610405578063faabcdeb1461041a57610170565b8063e522d6ed14610390578063e6d5622f146103a5578063e985e9c5146103c557610170565b8063a22cb465116100b0578063a22cb46514610330578063b88d4fde14610350578063c87b56dd1461037057610170565b80638da5cb5b146102f35780638f4758cc1461030857806395d89b411461031b57610170565b806342842e0e116101385780636352211e116101125780636352211e1461029e57806370a08231146102be578063715018a6146102de57610170565b806342842e0e1461023c5780634292ed071461025c57806354a0c4581461027e57610170565b806301ffc9a71461017557806306fdde03146101ab578063081812fc146101cd578063095ea7b3146101fa57806323b872dd1461021c575b600080fd5b34801561018157600080fd5b506101956101903660046117a2565b61043a565b6040516101a2919061190b565b60405180910390f35b3480156101b757600080fd5b506101c0610482565b6040516101a29190611916565b3480156101d957600080fd5b506101ed6101e8366004611820565b610514565b6040516101a291906118bb565b34801561020657600080fd5b5061021a610215366004611779565b610560565b005b34801561022857600080fd5b5061021a61023736600461168b565b6105f8565b34801561024857600080fd5b5061021a61025736600461168b565b610630565b34801561026857600080fd5b5061027161064b565b6040516101a2919061200d565b34801561028a57600080fd5b5061021a61029936600461163f565b610651565b3480156102aa57600080fd5b506101ed6102b9366004611820565b6106b6565b3480156102ca57600080fd5b506102716102d936600461163f565b6106eb565b3480156102ea57600080fd5b5061021a61072f565b3480156102ff57600080fd5b506101ed61077a565b61021a610316366004611820565b610789565b34801561032757600080fd5b506101c06108be565b34801561033c57600080fd5b5061021a61034b36600461173f565b6108cd565b34801561035c57600080fd5b5061021a61036b3660046116c6565b61099b565b34801561037c57600080fd5b506101c061038b366004611820565b6109da565b34801561039c57600080fd5b5061021a610afb565b3480156103b157600080fd5b506102716103c03660046117da565b610c03565b3480156103d157600080fd5b506101956103e0366004611659565b610cc7565b3480156103f157600080fd5b5061021a61040036600461163f565b610cf5565b34801561041157600080fd5b50610271610d66565b34801561042657600080fd5b50610271610435366004611820565b610d6b565b60006001600160e01b031982166380ac58cd60e01b148061046b57506001600160e01b03198216635b5e139f60e01b145b8061047a575061047a82610d7d565b90505b919050565b606060008054610491906120bb565b80601f01602080910402602001604051908101604052809291908181526020018280546104bd906120bb565b801561050a5780601f106104df5761010080835404028352916020019161050a565b820191906000526020600020905b8154815290600101906020018083116104ed57829003601f168201915b5050505050905090565b600061051f82610d96565b6105445760405162461bcd60e51b815260040161053b90611d6c565b60405180910390fd5b506000908152600460205260409020546001600160a01b031690565b600061056b826106b6565b9050806001600160a01b0316836001600160a01b0316141561059f5760405162461bcd60e51b815260040161053b90611eca565b806001600160a01b03166105b1610db3565b6001600160a01b031614806105cd57506105cd816103e0610db3565b6105e95760405162461bcd60e51b815260040161053b90611b13565b6105f38383610db7565b505050565b610609610603610db3565b82610e25565b6106255760405162461bcd60e51b815260040161053b90611f0b565b6105f3838383610ea2565b6105f38383836040518060200160405280600081525061099b565b600c5481565b610659610db3565b6001600160a01b031661066a61077a565b6001600160a01b0316146106905760405162461bcd60e51b815260040161053b90611db8565b6001600160a01b03166000908152600e60205260409020805461ff001916610100179055565b6000818152600260205260408120546001600160a01b03168061047a5760405162461bcd60e51b815260040161053b90611bba565b60006001600160a01b0382166107135760405162461bcd60e51b815260040161053b90611b70565b506001600160a01b031660009081526003602052604090205490565b610737610db3565b6001600160a01b031661074861077a565b6001600160a01b03161461076e5760405162461bcd60e51b815260040161053b90611db8565b6107786000610fcf565b565b6007546001600160a01b031690565b600260085414156107ac5760405162461bcd60e51b815260040161053b90611f9f565b6002600855806107ce5760405162461bcd60e51b815260040161053b90611f68565b600a546107db9082612042565b34146107f95760405162461bcd60e51b815260040161053b90611ded565b600c5481111561081b5760405162461bcd60e51b815260040161053b90611aca565b600b546040516001600160a01b03909116903480156108fc02916000818181858888f19350505050158015610854573d6000803e3d6000fd5b5060005b818110156108b557600061086a611021565b6000818152600d602052604090205490915061088582611096565b6108a0303383604051806020016040528060008152506110d3565b505080806108ad906120f6565b915050610858565b50506001600855565b606060018054610491906120bb565b6108d5610db3565b6001600160a01b0316826001600160a01b031614156109065760405162461bcd60e51b815260040161053b90611a47565b8060056000610913610db3565b6001600160a01b03908116825260208083019390935260409182016000908120918716808252919093529120805460ff191692151592909217909155610957610db3565b6001600160a01b03167f17307eab39ab6107e8899845ad3d59bd9653f200f220920489ca2b5937696c318360405161098f919061190b565b60405180910390a35050565b6109ac6109a6610db3565b83610e25565b6109c85760405162461bcd60e51b815260040161053b90611f0b565b6109d4848484846110d3565b50505050565b60606109e582610d96565b610a015760405162461bcd60e51b815260040161053b90611d0f565b60008281526006602052604081208054610a1a906120bb565b80601f0160208091040260200160405190810160405280929190818152602001828054610a46906120bb565b8015610a935780601f10610a6857610100808354040283529160200191610a93565b820191906000526020600020905b815481529060010190602001808311610a7657829003601f168201915b505050505090506000610aa4611106565b9050805160001415610ab85750905061047d565b815115610aea578082604051602001610ad2929190611864565b6040516020818303038152906040529250505061047d565b610af384611118565b949350505050565b60026008541415610b1e5760405162461bcd60e51b815260040161053b90611f9f565b6002600855336000908152600e6020526040902054610100900460ff16610b575760405162461bcd60e51b815260040161053b90611c60565b600c5460011115610b7a5760405162461bcd60e51b815260040161053b90611aca565b336000908152600e602052604090205460ff1615610baa5760405162461bcd60e51b815260040161053b90611ccc565b6000610bb4611021565b6000818152600d6020526040902054909150610bcf82611096565b336000818152600e60209081526040808320805460ff19166001179055805191820190529081526108b591309184906110d3565b6000610c0d610db3565b6001600160a01b0316610c1e61077a565b6001600160a01b031614610c445760405162461bcd60e51b815260040161053b90611db8565b6064610c50600961119b565b10610c6d5760405162461bcd60e51b815260040161053b90611fd6565b610c77600961119f565b6000610c83600961119b565b9050610c8f30826111a8565b610c998184611287565b600c80546000908152600d6020526040812083905581549190610cbb836120f6565b90915550909392505050565b6001600160a01b03918216600090815260056020908152604080832093909416825291909152205460ff1690565b610cfd610db3565b6001600160a01b0316610d0e61077a565b6001600160a01b031614610d345760405162461bcd60e51b815260040161053b90611db8565b6001600160a01b038116610d5a5760405162461bcd60e51b815260040161053b90611986565b610d6381610fcf565b50565b606481565b600d6020526000908152604090205481565b6001600160e01b031981166301ffc9a760e01b14919050565b6000908152600260205260409020546001600160a01b0316151590565b3390565b600081815260046020526040902080546001600160a01b0319166001600160a01b0384169081179091558190610dec826106b6565b6001600160a01b03167f8c5be1e5ebec7d5bd14f71427d1e84f3dd0314c0f7b2291e5b200ac8c7c3b92560405160405180910390a45050565b6000610e3082610d96565b610e4c5760405162461bcd60e51b815260040161053b90611a7e565b6000610e57836106b6565b9050806001600160a01b0316846001600160a01b03161480610e925750836001600160a01b0316610e8784610514565b6001600160a01b0316145b80610af35750610af38185610cc7565b826001600160a01b0316610eb5826106b6565b6001600160a01b031614610edb5760405162461bcd60e51b815260040161053b90611e24565b6001600160a01b038216610f015760405162461bcd60e51b815260040161053b90611a03565b610f0c8383836105f3565b610f17600082610db7565b6001600160a01b0383166000908152600360205260408120805460019290610f40908490612061565b90915550506001600160a01b0382166000908152600360205260408120805460019290610f6e908490612016565b909155505060008181526002602052604080822080546001600160a01b0319166001600160a01b0386811691821790925591518493918716917fddf252ad1be2c89b69c2b068fc378daa952ba7f163c4a11628f55a4df523b3ef91a4505050565b600780546001600160a01b038381166001600160a01b0319831681179093556040519116919082907f8be0079c531659141344cd1fd0a4f28419497f9722a3daafe3b4186f6b6457e090600090a35050565b336000908152600f602052604081208054908261103d836120f6565b9091555050600c54336000818152600f6020908152604080832054905192949361106d9391929091449101611893565b6040516020818303038152906040528051906020012060001c6110909190612111565b91505090565b600c80549060006110a6836120a4565b9091555050600c80546000908152600d602052604080822054938252808220939093559054815290812055565b6110de848484610ea2565b6110ea848484846112cb565b6109d45760405162461bcd60e51b815260040161053b90611929565b60408051602081019091526000815290565b606061112382610d96565b61113f5760405162461bcd60e51b815260040161053b90611e6d565b6000611149611106565b905060008151116111695760405180602001604052806000815250611194565b80611173846113e6565b604051602001611184929190611864565b6040516020818303038152906040525b9392505050565b5490565b80546001019055565b6001600160a01b0382166111ce5760405162461bcd60e51b815260040161053b90611c97565b6111d781610d96565b156111f45760405162461bcd60e51b815260040161053b906119cc565b611200600083836105f3565b6001600160a01b0382166000908152600360205260408120805460019290611229908490612016565b909155505060008181526002602052604080822080546001600160a01b0319166001600160a01b03861690811790915590518392907fddf252ad1be2c89b69c2b068fc378daa952ba7f163c4a11628f55a4df523b3ef908290a45050565b61129082610d96565b6112ac5760405162461bcd60e51b815260040161053b90611c03565b600082815260066020908152604090912082516105f39284019061151f565b60006112df846001600160a01b0316611519565b156113db57836001600160a01b031663150b7a026112fb610db3565b8786866040518563ffffffff1660e01b815260040161131d94939291906118cf565b602060405180830381600087803b15801561133757600080fd5b505af1925050508015611367575060408051601f3d908101601f19168201909252611364918101906117be565b60015b6113c1573d808015611395576040519150601f19603f3d011682016040523d82523d6000602084013e61139a565b606091505b5080516113b95760405162461bcd60e51b815260040161053b90611929565b805181602001fd5b6001600160e01b031916630a85bd0160e11b149050610af3565b506001949350505050565b60608161140b57506040805180820190915260018152600360fc1b602082015261047d565b8160005b8115611435578061141f816120f6565b915061142e9050600a8361202e565b915061140f565b60008167ffffffffffffffff81111561145e57634e487b7160e01b600052604160045260246000fd5b6040519080825280601f01601f191660200182016040528015611488576020820181803683370190505b5090505b8415610af35761149d600183612061565b91506114aa600a86612111565b6114b5906030612016565b60f81b8183815181106114d857634e487b7160e01b600052603260045260246000fd5b60200101907effffffffffffffffffffffffffffffffffffffffffffffffffffffffffffff1916908160001a905350611512600a8661202e565b945061148c565b3b151590565b82805461152b906120bb565b90600052602060002090601f01602090048101928261154d5760008555611593565b82601f1061156657805160ff1916838001178555611593565b82800160010185558215611593579182015b82811115611593578251825591602001919060010190611578565b5061159f9291506115a3565b5090565b5b8082111561159f57600081556001016115a4565b600067ffffffffffffffff808411156115d3576115d3612151565b604051601f8501601f1916810160200182811182821017156115f7576115f7612151565b60405284815291508183850186101561160f57600080fd5b8484602083013760006020868301015250509392505050565b80356001600160a01b038116811461047d57600080fd5b600060208284031215611650578081fd5b61119482611628565b6000806040838503121561166b578081fd5b61167483611628565b915061168260208401611628565b90509250929050565b60008060006060848603121561169f578081fd5b6116a884611628565b92506116b660208501611628565b9150604084013590509250925092565b600080600080608085870312156116db578081fd5b6116e485611628565b93506116f260208601611628565b925060408501359150606085013567ffffffffffffffff811115611714578182fd5b8501601f81018713611724578182fd5b611733878235602084016115b8565b91505092959194509250565b60008060408385031215611751578182fd5b61175a83611628565b91506020830135801515811461176e578182fd5b809150509250929050565b6000806040838503121561178b578182fd5b61179483611628565b946020939093013593505050565b6000602082840312156117b3578081fd5b813561119481612167565b6000602082840312156117cf578081fd5b815161119481612167565b6000602082840312156117eb578081fd5b813567ffffffffffffffff811115611801578182fd5b8201601f81018413611811578182fd5b610af3848235602084016115b8565b600060208284031215611831578081fd5b5035919050565b60008151808452611850816020860160208601612078565b601f01601f19169290920160200192915050565b60008351611876818460208801612078565b83519083019061188a818360208801612078565b01949350505050565b92835260609190911b6bffffffffffffffffffffffff19166020830152603482015260540190565b6001600160a01b0391909116815260200190565b60006001600160a01b038087168352808616602084015250836040830152608060608301526119016080830184611838565b9695505050505050565b901515815260200190565b6000602082526111946020830184611838565b60208082526032908201527f4552433732313a207472616e7366657220746f206e6f6e20455243373231526560408201527f63656976657220696d706c656d656e7465720000000000000000000000000000606082015260800190565b60208082526026908201527f4f776e61626c653a206e6577206f776e657220697320746865207a65726f206160408201526564647265737360d01b606082015260800190565b6020808252601c908201527f4552433732313a20746f6b656e20616c7265616479206d696e74656400000000604082015260600190565b60208082526024908201527f4552433732313a207472616e7366657220746f20746865207a65726f206164646040820152637265737360e01b606082015260800190565b60208082526019908201527f4552433732313a20617070726f766520746f2063616c6c657200000000000000604082015260600190565b6020808252602c908201527f4552433732313a206f70657261746f7220717565727920666f72206e6f6e657860408201526b34b9ba32b73a103a37b5b2b760a11b606082015260800190565b60208082526029908201527f5468657265206172656e277420656e6f756768206c65667420746f206275792060408201526874686174206d616e7960b81b606082015260800190565b60208082526038908201527f4552433732313a20617070726f76652063616c6c6572206973206e6f74206f7760408201527f6e6572206e6f7220617070726f76656420666f7220616c6c0000000000000000606082015260800190565b6020808252602a908201527f4552433732313a2062616c616e636520717565727920666f7220746865207a65604082015269726f206164647265737360b01b606082015260800190565b60208082526029908201527f4552433732313a206f776e657220717565727920666f72206e6f6e657869737460408201526832b73a103a37b5b2b760b91b606082015260800190565b6020808252602e908201527f45524337323155524953746f726167653a2055524920736574206f66206e6f6e60408201527f6578697374656e7420746f6b656e000000000000000000000000000000000000606082015260800190565b6020808252600e908201527f4f6e6c792070726f6d6f7465722e000000000000000000000000000000000000604082015260600190565b6020808252818101527f4552433732313a206d696e7420746f20746865207a65726f2061646472657373604082015260600190565b60208082526023908201527f596f75206861766520616c726561647920636c61696d656420796f757220506c604082015262616e6b60e81b606082015260800190565b60208082526031908201527f45524337323155524953746f726167653a2055524920717565727920666f722060408201527f6e6f6e6578697374656e7420746f6b656e000000000000000000000000000000606082015260800190565b6020808252602c908201527f4552433732313a20617070726f76656420717565727920666f72206e6f6e657860408201526b34b9ba32b73a103a37b5b2b760a11b606082015260800190565b6020808252818101527f4f776e61626c653a2063616c6c6572206973206e6f7420746865206f776e6572604082015260600190565b6020808252601e908201527f496e636f727265637420616d6f756e74206f66206d617469632073656e740000604082015260600190565b60208082526029908201527f4552433732313a207472616e73666572206f6620746f6b656e2074686174206960408201526839903737ba1037bbb760b91b606082015260800190565b6020808252602f908201527f4552433732314d657461646174613a2055524920717565727920666f72206e6f60408201527f6e6578697374656e7420746f6b656e0000000000000000000000000000000000606082015260800190565b60208082526021908201527f4552433732313a20617070726f76616c20746f2063757272656e74206f776e656040820152603960f91b606082015260800190565b60208082526031908201527f4552433732313a207472616e736665722063616c6c6572206973206e6f74206f60408201527f776e6572206e6f7220617070726f766564000000000000000000000000000000606082015260800190565b60208082526015908201527f4d75737420627579206174206c65617374206f6e650000000000000000000000604082015260600190565b6020808252601f908201527f5265656e7472616e637947756172643a207265656e7472616e742063616c6c00604082015260600190565b6020808252601b908201527f416c6c20746f6b656e732068617665206265656e206d696e7465640000000000604082015260600190565b90815260200190565b6000821982111561202957612029612125565b500190565b60008261203d5761203d61213b565b500490565b600081600019048311821515161561205c5761205c612125565b500290565b60008282101561207357612073612125565b500390565b60005b8381101561209357818101518382015260200161207b565b838111156109d45750506000910152565b6000816120b3576120b3612125565b506000190190565b6002810460018216806120cf57607f821691505b602082108114156120f057634e487b7160e01b600052602260045260246000fd5b50919050565b600060001982141561210a5761210a612125565b5060010190565b6000826121205761212061213b565b500690565b634e487b7160e01b600052601160045260246000fd5b634e487b7160e01b600052601260045260246000fd5b634e487b7160e01b600052604160045260246000fd5b6001600160e01b031981168114610d6357600080fdfea26469706673582212200ddc0644876ac49e74f883c1d42340bda90d43a780dec4a049c9a3151b8201b964736f6c63430008000033",
  "devdoc": {
    "kind": "dev",
    "methods": {
      "approve(address,uint256)": {
        "details": "See {IERC721-approve}."
      },
      "balanceOf(address)": {
        "details": "See {IERC721-balanceOf}."
      },
      "getApproved(uint256)": {
        "details": "See {IERC721-getApproved}."
      },
      "isApprovedForAll(address,address)": {
        "details": "See {IERC721-isApprovedForAll}."
      },
      "name()": {
        "details": "See {IERC721Metadata-name}."
      },
      "owner()": {
        "details": "Returns the address of the current owner."
      },
      "ownerOf(uint256)": {
        "details": "See {IERC721-ownerOf}."
      },
      "renounceOwnership()": {
        "details": "Leaves the contract without owner. It will not be possible to call `onlyOwner` functions anymore. Can only be called by the current owner. NOTE: Renouncing ownership will leave the contract without an owner, thereby removing any functionality that is only available to the owner."
      },
      "safeTransferFrom(address,address,uint256)": {
        "details": "See {IERC721-safeTransferFrom}."
      },
      "safeTransferFrom(address,address,uint256,bytes)": {
        "details": "See {IERC721-safeTransferFrom}."
      },
      "setApprovalForAll(address,bool)": {
        "details": "See {IERC721-setApprovalForAll}."
      },
      "supportsInterface(bytes4)": {
        "details": "See {IERC165-supportsInterface}."
      },
      "symbol()": {
        "details": "See {IERC721Metadata-symbol}."
      },
      "tokenURI(uint256)": {
        "details": "See {IERC721Metadata-tokenURI}."
      },
      "transferFrom(address,address,uint256)": {
        "details": "See {IERC721-transferFrom}."
      },
      "transferOwnership(address)": {
        "details": "Transfers ownership of the contract to a new account (`newOwner`). Can only be called by the current owner."
      }
    },
    "version": 1
  },
  "userdoc": {
    "kind": "user",
    "methods": {},
    "version": 1
  },
  "storageLayout": {
    "storage": [
      {
        "astId": 169,
        "contract": "contracts/PolyPlankToken.sol:PolyPlankToken",
        "label": "_name",
        "offset": 0,
        "slot": "0",
        "type": "t_string_storage"
      },
      {
        "astId": 171,
        "contract": "contracts/PolyPlankToken.sol:PolyPlankToken",
        "label": "_symbol",
        "offset": 0,
        "slot": "1",
        "type": "t_string_storage"
      },
      {
        "astId": 175,
        "contract": "contracts/PolyPlankToken.sol:PolyPlankToken",
        "label": "_owners",
        "offset": 0,
        "slot": "2",
        "type": "t_mapping(t_uint256,t_address)"
      },
      {
        "astId": 179,
        "contract": "contracts/PolyPlankToken.sol:PolyPlankToken",
        "label": "_balances",
        "offset": 0,
        "slot": "3",
        "type": "t_mapping(t_address,t_uint256)"
      },
      {
        "astId": 183,
        "contract": "contracts/PolyPlankToken.sol:PolyPlankToken",
        "label": "_tokenApprovals",
        "offset": 0,
        "slot": "4",
        "type": "t_mapping(t_uint256,t_address)"
      },
      {
        "astId": 189,
        "contract": "contracts/PolyPlankToken.sol:PolyPlankToken",
        "label": "_operatorApprovals",
        "offset": 0,
        "slot": "5",
        "type": "t_mapping(t_address,t_mapping(t_address,t_bool))"
      },
      {
        "astId": 1106,
        "contract": "contracts/PolyPlankToken.sol:PolyPlankToken",
        "label": "_tokenURIs",
        "offset": 0,
        "slot": "6",
        "type": "t_mapping(t_uint256,t_string_storage)"
      },
      {
        "astId": 7,
        "contract": "contracts/PolyPlankToken.sol:PolyPlankToken",
        "label": "_owner",
        "offset": 0,
        "slot": "7",
        "type": "t_address"
      },
      {
        "astId": 114,
        "contract": "contracts/PolyPlankToken.sol:PolyPlankToken",
        "label": "_status",
        "offset": 0,
        "slot": "8",
        "type": "t_uint256"
      },
      {
        "astId": 1904,
        "contract": "contracts/PolyPlankToken.sol:PolyPlankToken",
        "label": "_tokenIds",
        "offset": 0,
        "slot": "9",
        "type": "t_struct(Counter)1573_storage"
      },
      {
        "astId": 1910,
        "contract": "contracts/PolyPlankToken.sol:PolyPlankToken",
        "label": "_buyingPrice",
        "offset": 0,
        "slot": "10",
        "type": "t_uint256"
      },
      {
        "astId": 1912,
        "contract": "contracts/PolyPlankToken.sol:PolyPlankToken",
        "label": "_devWallet",
        "offset": 0,
        "slot": "11",
        "type": "t_address_payable"
      },
      {
        "astId": 1914,
        "contract": "contracts/PolyPlankToken.sol:PolyPlankToken",
        "label": "SalesRemaining",
        "offset": 0,
        "slot": "12",
        "type": "t_uint256"
      },
      {
        "astId": 1918,
        "contract": "contracts/PolyPlankToken.sol:PolyPlankToken",
        "label": "availablePlanks",
        "offset": 0,
        "slot": "13",
        "type": "t_mapping(t_uint256,t_uint256)"
      },
      {
        "astId": 1923,
        "contract": "contracts/PolyPlankToken.sol:PolyPlankToken",
        "label": "promoterClaims",
        "offset": 0,
        "slot": "14",
        "type": "t_mapping(t_address,t_struct(Promoter)1901_storage)"
      },
      {
        "astId": 1927,
        "contract": "contracts/PolyPlankToken.sol:PolyPlankToken",
        "label": "nonce",
        "offset": 0,
        "slot": "15",
        "type": "t_mapping(t_address,t_uint256)"
      }
    ],
    "types": {
      "t_address": {
        "encoding": "inplace",
        "label": "address",
        "numberOfBytes": "20"
      },
      "t_address_payable": {
        "encoding": "inplace",
        "label": "address payable",
        "numberOfBytes": "20"
      },
      "t_bool": {
        "encoding": "inplace",
        "label": "bool",
        "numberOfBytes": "1"
      },
      "t_mapping(t_address,t_bool)": {
        "encoding": "mapping",
        "key": "t_address",
        "label": "mapping(address => bool)",
        "numberOfBytes": "32",
        "value": "t_bool"
      },
      "t_mapping(t_address,t_mapping(t_address,t_bool))": {
        "encoding": "mapping",
        "key": "t_address",
        "label": "mapping(address => mapping(address => bool))",
        "numberOfBytes": "32",
        "value": "t_mapping(t_address,t_bool)"
      },
      "t_mapping(t_address,t_struct(Promoter)1901_storage)": {
        "encoding": "mapping",
        "key": "t_address",
        "label": "mapping(address => struct PolyPlankToken.Promoter)",
        "numberOfBytes": "32",
        "value": "t_struct(Promoter)1901_storage"
      },
      "t_mapping(t_address,t_uint256)": {
        "encoding": "mapping",
        "key": "t_address",
        "label": "mapping(address => uint256)",
        "numberOfBytes": "32",
        "value": "t_uint256"
      },
      "t_mapping(t_uint256,t_address)": {
        "encoding": "mapping",
        "key": "t_uint256",
        "label": "mapping(uint256 => address)",
        "numberOfBytes": "32",
        "value": "t_address"
      },
      "t_mapping(t_uint256,t_string_storage)": {
        "encoding": "mapping",
        "key": "t_uint256",
        "label": "mapping(uint256 => string)",
        "numberOfBytes": "32",
        "value": "t_string_storage"
      },
      "t_mapping(t_uint256,t_uint256)": {
        "encoding": "mapping",
        "key": "t_uint256",
        "label": "mapping(uint256 => uint256)",
        "numberOfBytes": "32",
        "value": "t_uint256"
      },
      "t_string_storage": {
        "encoding": "bytes",
        "label": "string",
        "numberOfBytes": "32"
      },
      "t_struct(Counter)1573_storage": {
        "encoding": "inplace",
        "label": "struct Counters.Counter",
        "members": [
          {
            "astId": 1572,
            "contract": "contracts/PolyPlankToken.sol:PolyPlankToken",
            "label": "_value",
            "offset": 0,
            "slot": "0",
            "type": "t_uint256"
          }
        ],
        "numberOfBytes": "32"
      },
      "t_struct(Promoter)1901_storage": {
        "encoding": "inplace",
        "label": "struct PolyPlankToken.Promoter",
        "members": [
          {
            "astId": 1898,
            "contract": "contracts/PolyPlankToken.sol:PolyPlankToken",
            "label": "isClaimed",
            "offset": 0,
            "slot": "0",
            "type": "t_bool"
          },
          {
            "astId": 1900,
            "contract": "contracts/PolyPlankToken.sol:PolyPlankToken",
            "label": "isApproved",
            "offset": 1,
            "slot": "0",
            "type": "t_bool"
          }
        ],
        "numberOfBytes": "32"
      },
      "t_uint256": {
        "encoding": "inplace",
        "label": "uint256",
        "numberOfBytes": "32"
      }
    }
  }
}